{
  "_format": "hh-sol-artifact-1",
  "contractName": "SafeClub",
  "sourceName": "contracts/SafeClub.sol",
  "abi": [
    {
      "inputs": [
        {
          "internalType": "uint256",
          "name": "_quorum",
          "type": "uint256"
        }
      ],
      "stateMutability": "nonpayable",
      "type": "constructor"
    },
    {
      "inputs": [
        {
          "internalType": "address",
          "name": "owner",
          "type": "address"
        }
      ],
      "name": "OwnableInvalidOwner",
      "type": "error"
    },
    {
      "inputs": [
        {
          "internalType": "address",
          "name": "account",
          "type": "address"
        }
      ],
      "name": "OwnableUnauthorizedAccount",
      "type": "error"
    },
    {
      "inputs": [],
      "name": "ReentrancyGuardReentrantCall",
      "type": "error"
    },
    {
      "anonymous": false,
      "inputs": [
        {
          "indexed": false,
          "internalType": "address",
          "name": "member",
          "type": "address"
        }
      ],
      "name": "MemberAdded",
      "type": "event"
    },
    {
      "anonymous": false,
      "inputs": [
        {
          "indexed": false,
          "internalType": "address",
          "name": "member",
          "type": "address"
        }
      ],
      "name": "MemberRemoved",
      "type": "event"
    },
    {
      "anonymous": false,
      "inputs": [
        {
          "indexed": true,
          "internalType": "address",
          "name": "previousOwner",
          "type": "address"
        },
        {
          "indexed": true,
          "internalType": "address",
          "name": "newOwner",
          "type": "address"
        }
      ],
      "name": "OwnershipTransferred",
      "type": "event"
    },
    {
      "anonymous": false,
      "inputs": [
        {
          "indexed": false,
          "internalType": "uint256",
          "name": "proposalId",
          "type": "uint256"
        },
        {
          "indexed": false,
          "internalType": "address",
          "name": "recipient",
          "type": "address"
        },
        {
          "indexed": false,
          "internalType": "uint256",
          "name": "amount",
          "type": "uint256"
        },
        {
          "indexed": false,
          "internalType": "uint256",
          "name": "deadline",
          "type": "uint256"
        }
      ],
      "name": "ProposalCreated",
      "type": "event"
    },
    {
      "anonymous": false,
      "inputs": [
        {
          "indexed": false,
          "internalType": "uint256",
          "name": "proposalId",
          "type": "uint256"
        },
        {
          "indexed": false,
          "internalType": "address",
          "name": "recipient",
          "type": "address"
        },
        {
          "indexed": false,
          "internalType": "uint256",
          "name": "amount",
          "type": "uint256"
        }
      ],
      "name": "ProposalExecuted",
      "type": "event"
    },
    {
      "anonymous": false,
      "inputs": [
        {
          "indexed": false,
          "internalType": "uint256",
          "name": "proposalId",
          "type": "uint256"
        },
        {
          "indexed": false,
          "internalType": "address",
          "name": "voter",
          "type": "address"
        },
        {
          "indexed": false,
          "internalType": "bool",
          "name": "support",
          "type": "bool"
        }
      ],
      "name": "Voted",
      "type": "event"
    },
    {
      "inputs": [
        {
          "internalType": "address",
          "name": "_member",
          "type": "address"
        }
      ],
      "name": "addMember",
      "outputs": [],
      "stateMutability": "nonpayable",
      "type": "function"
    },
    {
      "inputs": [
        {
          "internalType": "address",
          "name": "_recipient",
          "type": "address"
        },
        {
          "internalType": "uint256",
          "name": "_amount",
          "type": "uint256"
        },
        {
          "internalType": "string",
          "name": "_description",
          "type": "string"
        },
        {
          "internalType": "uint256",
          "name": "_durationSeconds",
          "type": "uint256"
        }
      ],
      "name": "createProposal",
      "outputs": [],
      "stateMutability": "nonpayable",
      "type": "function"
    },
    {
      "inputs": [
        {
          "internalType": "uint256",
          "name": "_proposalId",
          "type": "uint256"
        }
      ],
      "name": "executeProposal",
      "outputs": [],
      "stateMutability": "nonpayable",
      "type": "function"
    },
    {
      "inputs": [],
      "name": "getBalance",
      "outputs": [
        {
          "internalType": "uint256",
          "name": "",
          "type": "uint256"
        }
      ],
      "stateMutability": "view",
      "type": "function"
    },
    {
      "inputs": [],
      "name": "getMemberCount",
      "outputs": [
        {
          "internalType": "uint256",
          "name": "",
          "type": "uint256"
        }
      ],
      "stateMutability": "view",
      "type": "function"
    },
    {
      "inputs": [
        {
          "internalType": "uint256",
          "name": "_proposalId",
          "type": "uint256"
        }
      ],
      "name": "getProposal",
      "outputs": [
        {
          "internalType": "address",
          "name": "recipient",
          "type": "address"
        },
        {
          "internalType": "uint256",
          "name": "amount",
          "type": "uint256"
        },
        {
          "internalType": "string",
          "name": "description",
          "type": "string"
        },
        {
          "internalType": "uint256",
          "name": "deadline",
          "type": "uint256"
        },
        {
          "internalType": "uint256",
          "name": "yesVotes",
          "type": "uint256"
        },
        {
          "internalType": "uint256",
          "name": "noVotes",
          "type": "uint256"
        },
        {
          "internalType": "bool",
          "name": "executed",
          "type": "bool"
        }
      ],
      "stateMutability": "view",
      "type": "function"
    },
    {
      "inputs": [
        {
          "internalType": "uint256",
          "name": "_proposalId",
          "type": "uint256"
        },
        {
          "internalType": "address",
          "name": "_member",
          "type": "address"
        }
      ],
      "name": "hasVoted",
      "outputs": [
        {
          "internalType": "bool",
          "name": "",
          "type": "bool"
        }
      ],
      "stateMutability": "view",
      "type": "function"
    },
    {
      "inputs": [
        {
          "internalType": "address",
          "name": "",
          "type": "address"
        }
      ],
      "name": "isMember",
      "outputs": [
        {
          "internalType": "bool",
          "name": "",
          "type": "bool"
        }
      ],
      "stateMutability": "view",
      "type": "function"
    },
    {
      "inputs": [
        {
          "internalType": "uint256",
          "name": "",
          "type": "uint256"
        }
      ],
      "name": "members",
      "outputs": [
        {
          "internalType": "address",
          "name": "",
          "type": "address"
        }
      ],
      "stateMutability": "view",
      "type": "function"
    },
    {
      "inputs": [],
      "name": "nextProposalId",
      "outputs": [
        {
          "internalType": "uint256",
          "name": "",
          "type": "uint256"
        }
      ],
      "stateMutability": "view",
      "type": "function"
    },
    {
      "inputs": [],
      "name": "owner",
      "outputs": [
        {
          "internalType": "address",
          "name": "",
          "type": "address"
        }
      ],
      "stateMutability": "view",
      "type": "function"
    },
    {
      "inputs": [],
      "name": "quorum",
      "outputs": [
        {
          "internalType": "uint256",
          "name": "",
          "type": "uint256"
        }
      ],
      "stateMutability": "view",
      "type": "function"
    },
    {
      "inputs": [
        {
          "internalType": "address",
          "name": "_member",
          "type": "address"
        }
      ],
      "name": "removeMember",
      "outputs": [],
      "stateMutability": "nonpayable",
      "type": "function"
    },
    {
      "inputs": [],
      "name": "renounceOwnership",
      "outputs": [],
      "stateMutability": "nonpayable",
      "type": "function"
    },
    {
      "inputs": [
        {
          "internalType": "uint256",
          "name": "_newQuorum",
          "type": "uint256"
        }
      ],
      "name": "setQuorum",
      "outputs": [],
      "stateMutability": "nonpayable",
      "type": "function"
    },
    {
      "inputs": [
        {
          "internalType": "address",
          "name": "newOwner",
          "type": "address"
        }
      ],
      "name": "transferOwnership",
      "outputs": [],
      "stateMutability": "nonpayable",
      "type": "function"
    },
    {
      "inputs": [
        {
          "internalType": "uint256",
          "name": "_proposalId",
          "type": "uint256"
        },
        {
          "internalType": "bool",
          "name": "_support",
          "type": "bool"
        }
      ],
      "name": "vote",
      "outputs": [],
      "stateMutability": "nonpayable",
      "type": "function"
    },
    {
      "stateMutability": "payable",
      "type": "receive"
    }
  ],
  "bytecode": "0x608060405234801561001057600080fd5b506040516129f63803806129f6833981810160405281019061003291906102ba565b33600073ffffffffffffffffffffffffffffffffffffffff168173ffffffffffffffffffffffffffffffffffffffff16036100a55760006040517f1e4fbdf700000000000000000000000000000000000000000000000000000000815260040161009c9190610328565b60405180910390fd5b6100b4816101bb60201b60201c565b5060018081905550806002819055506001600660003373ffffffffffffffffffffffffffffffffffffffff1673ffffffffffffffffffffffffffffffffffffffff16815260200190815260200160002060006101000a81548160ff0219169083151502179055506005339080600181540180825580915050600190039060005260206000200160009091909190916101000a81548173ffffffffffffffffffffffffffffffffffffffff021916908373ffffffffffffffffffffffffffffffffffffffff1602179055507fb251eb052afc73ffd02ffe85ad79990a8b3fed60d76dbc2fa2fdd7123dffd914336040516101ad9190610328565b60405180910390a150610343565b60008060009054906101000a900473ffffffffffffffffffffffffffffffffffffffff169050816000806101000a81548173ffffffffffffffffffffffffffffffffffffffff021916908373ffffffffffffffffffffffffffffffffffffffff1602179055508173ffffffffffffffffffffffffffffffffffffffff168173ffffffffffffffffffffffffffffffffffffffff167f8be0079c531659141344cd1fd0a4f28419497f9722a3daafe3b4186f6b6457e060405160405180910390a35050565b600080fd5b6000819050919050565b61029781610284565b81146102a257600080fd5b50565b6000815190506102b48161028e565b92915050565b6000602082840312156102d0576102cf61027f565b5b60006102de848285016102a5565b91505092915050565b600073ffffffffffffffffffffffffffffffffffffffff82169050919050565b6000610312826102e7565b9050919050565b61032281610307565b82525050565b600060208201905061033d6000830184610319565b92915050565b6126a4806103526000396000f3fe6080604052600436106101025760003560e01c80637d10707b11610095578063c1ba4e5911610064578063c1ba4e591461032e578063c7f758a814610357578063c9d27afe1461039a578063ca6d56dc146103c3578063f2fde38b146103ec57610109565b80637d10707b146102725780638da5cb5b1461029b578063997072f7146102c6578063a230c524146102f157610109565b80632ab09d14116100d15780632ab09d14146101b657806343859632146101e15780635daf08ca1461021e578063715018a61461025b57610109565b80630b1ca49a1461010e5780630d61b5191461013757806312065fe0146101605780631703a0181461018b57610109565b3661010957005b600080fd5b34801561011a57600080fd5b50610135600480360381019061013091906116a9565b610415565b005b34801561014357600080fd5b5061015e6004803603810190610159919061170c565b6106c2565b005b34801561016c57600080fd5b506101756109f8565b6040516101829190611748565b60405180910390f35b34801561019757600080fd5b506101a0610a00565b6040516101ad9190611748565b60405180910390f35b3480156101c257600080fd5b506101cb610a06565b6040516101d89190611748565b60405180910390f35b3480156101ed57600080fd5b5061020860048036038101906102039190611763565b610a0c565b60405161021591906117be565b60405180910390f35b34801561022a57600080fd5b506102456004803603810190610240919061170c565b610abb565b60405161025291906117e8565b60405180910390f35b34801561026757600080fd5b50610270610afa565b005b34801561027e57600080fd5b5061029960048036038101906102949190611868565b610b0e565b005b3480156102a757600080fd5b506102b0610d7f565b6040516102bd91906117e8565b60405180910390f35b3480156102d257600080fd5b506102db610da8565b6040516102e89190611748565b60405180910390f35b3480156102fd57600080fd5b50610318600480360381019061031391906116a9565b610db5565b60405161032591906117be565b60405180910390f35b34801561033a57600080fd5b506103556004803603810190610350919061170c565b610dd5565b005b34801561036357600080fd5b5061037e6004803603810190610379919061170c565b610e2a565b6040516103919796959493929190611980565b60405180910390f35b3480156103a657600080fd5b506103c160048036038101906103bc9190611a22565b610f85565b005b3480156103cf57600080fd5b506103ea60048036038101906103e591906116a9565b611220565b005b3480156103f857600080fd5b50610413600480360381019061040e91906116a9565b611419565b005b61041d61149f565b600660008273ffffffffffffffffffffffffffffffffffffffff1673ffffffffffffffffffffffffffffffffffffffff16815260200190815260200160002060009054906101000a900460ff166104a9576040517f08c379a00000000000000000000000000000000000000000000000000000000081526004016104a090611aae565b60405180910390fd5b6000600660008373ffffffffffffffffffffffffffffffffffffffff1673ffffffffffffffffffffffffffffffffffffffff16815260200190815260200160002060006101000a81548160ff02191690831515021790555060005b600580549050811015610687578173ffffffffffffffffffffffffffffffffffffffff166005828154811061053c5761053b611ace565b5b9060005260206000200160009054906101000a900473ffffffffffffffffffffffffffffffffffffffff1673ffffffffffffffffffffffffffffffffffffffff160361067a57600560016005805490506105969190611b2c565b815481106105a7576105a6611ace565b5b9060005260206000200160009054906101000a900473ffffffffffffffffffffffffffffffffffffffff16600582815481106105e6576105e5611ace565b5b9060005260206000200160006101000a81548173ffffffffffffffffffffffffffffffffffffffff021916908373ffffffffffffffffffffffffffffffffffffffff16021790555060058054806106405761063f611b60565b5b6001900381819060005260206000200160006101000a81549073ffffffffffffffffffffffffffffffffffffffff02191690559055610687565b8080600101915050610504565b507f6e76fb4c77256006d9c38ec7d82b45a8c8f3c27b1d6766fffc42dfb8de684492816040516106b791906117e8565b60405180910390a150565b6106ca611526565b600454811061070e576040517f08c379a000000000000000000000000000000000000000000000000000000000815260040161070590611bdb565b60405180910390fd5b60006003600083815260200190815260200160002090508060030154421161076b576040517f08c379a000000000000000000000000000000000000000000000000000000000815260040161076290611c47565b60405180910390fd5b8060060160009054906101000a900460ff16156107bd576040517f08c379a00000000000000000000000000000000000000000000000000000000081526004016107b490611cb3565b60405180910390fd5b60025481600401541015610806576040517f08c379a00000000000000000000000000000000000000000000000000000000081526004016107fd90611d1f565b60405180910390fd5b8060050154816004015411610850576040517f08c379a000000000000000000000000000000000000000000000000000000000815260040161084790611d8b565b60405180910390fd5b8060010154471015610897576040517f08c379a000000000000000000000000000000000000000000000000000000000815260040161088e90611df7565b60405180910390fd5b60018160060160006101000a81548160ff02191690831515021790555060008160000160009054906101000a900473ffffffffffffffffffffffffffffffffffffffff1673ffffffffffffffffffffffffffffffffffffffff16826001015460405161090290611e48565b60006040518083038185875af1925050503d806000811461093f576040519150601f19603f3d011682016040523d82523d6000602084013e610944565b606091505b5050905080610988576040517f08c379a000000000000000000000000000000000000000000000000000000000815260040161097f90611ea9565b60405180910390fd5b7f3b7c90df35b419337cff0919fe91849006607bb66c4373623f06f9d48c1ebb98838360000160009054906101000a900473ffffffffffffffffffffffffffffffffffffffff1684600101546040516109e393929190611ec9565b60405180910390a150506109f561156c565b50565b600047905090565b60025481565b60045481565b60006004548310610a52576040517f08c379a0000000000000000000000000000000000000000000000000000000008152600401610a4990611bdb565b60405180910390fd5b6003600084815260200190815260200160002060070160008373ffffffffffffffffffffffffffffffffffffffff1673ffffffffffffffffffffffffffffffffffffffff16815260200190815260200160002060009054906101000a900460ff16905092915050565b60058181548110610acb57600080fd5b906000526020600020016000915054906101000a900473ffffffffffffffffffffffffffffffffffffffff1681565b610b0261149f565b610b0c6000611575565b565b600660003373ffffffffffffffffffffffffffffffffffffffff1673ffffffffffffffffffffffffffffffffffffffff16815260200190815260200160002060009054906101000a900460ff16610b9a576040517f08c379a0000000000000000000000000000000000000000000000000000000008152600401610b9190611f4c565b60405180910390fd5b600073ffffffffffffffffffffffffffffffffffffffff168573ffffffffffffffffffffffffffffffffffffffff1603610c09576040517f08c379a0000000000000000000000000000000000000000000000000000000008152600401610c0090611fb8565b60405180910390fd5b60008411610c4c576040517f08c379a0000000000000000000000000000000000000000000000000000000008152600401610c4390612024565b60405180910390fd5b47841115610c8f576040517f08c379a0000000000000000000000000000000000000000000000000000000008152600401610c8690611df7565b60405180910390fd5b600060046000815480929190610ca490612044565b9190505590506000600360008381526020019081526020016000209050868160000160006101000a81548173ffffffffffffffffffffffffffffffffffffffff021916908373ffffffffffffffffffffffffffffffffffffffff1602179055508581600101819055508484826002019182610d209291906122d2565b508242610d2d91906123a2565b81600301819055507fd38d9a9a102af286aea1cbcadb8aab8446a90859626389db3710ed4fea4c2c398288888460030154604051610d6e94939291906123d6565b60405180910390a150505050505050565b60008060009054906101000a900473ffffffffffffffffffffffffffffffffffffffff16905090565b6000600580549050905090565b60066020528060005260406000206000915054906101000a900460ff1681565b610ddd61149f565b60008111610e20576040517f08c379a0000000000000000000000000000000000000000000000000000000008152600401610e1790612467565b60405180910390fd5b8060028190555050565b60008060606000806000806004548810610e79576040517f08c379a0000000000000000000000000000000000000000000000000000000008152600401610e7090611bdb565b60405180910390fd5b6000600360008a815260200190815260200160002090508060000160009054906101000a900473ffffffffffffffffffffffffffffffffffffffff168160010154826002018360030154846004015485600501548660060160009054906101000a900460ff16848054610eeb906120f5565b80601f0160208091040260200160405190810160405280929190818152602001828054610f17906120f5565b8015610f645780601f10610f3957610100808354040283529160200191610f64565b820191906000526020600020905b815481529060010190602001808311610f4757829003601f168201915b50505050509450975097509750975097509750975050919395979092949650565b600660003373ffffffffffffffffffffffffffffffffffffffff1673ffffffffffffffffffffffffffffffffffffffff16815260200190815260200160002060009054906101000a900460ff16611011576040517f08c379a000000000000000000000000000000000000000000000000000000000815260040161100890611f4c565b60405180910390fd5b6004548210611055576040517f08c379a000000000000000000000000000000000000000000000000000000000815260040161104c90611bdb565b60405180910390fd5b600060036000848152602001908152602001600020905080600301544211156110b3576040517f08c379a00000000000000000000000000000000000000000000000000000000081526004016110aa906124d3565b60405180910390fd5b8060070160003373ffffffffffffffffffffffffffffffffffffffff1673ffffffffffffffffffffffffffffffffffffffff16815260200190815260200160002060009054906101000a900460ff1615611142576040517f08c379a00000000000000000000000000000000000000000000000000000000081526004016111399061253f565b60405180910390fd5b60018160070160003373ffffffffffffffffffffffffffffffffffffffff1673ffffffffffffffffffffffffffffffffffffffff16815260200190815260200160002060006101000a81548160ff02191690831515021790555081156111c35760018160040160008282546111b791906123a2565b925050819055506111e0565b60018160050160008282546111d891906123a2565b925050819055505b7ff2913dbe661ee2acc4a046d8fbcdc792373bda34c41c6086484b5345e5785e5f8333846040516112139392919061255f565b60405180910390a1505050565b61122861149f565b600073ffffffffffffffffffffffffffffffffffffffff168173ffffffffffffffffffffffffffffffffffffffff1603611297576040517f08c379a000000000000000000000000000000000000000000000000000000000815260040161128e906125e2565b60405180910390fd5b600660008273ffffffffffffffffffffffffffffffffffffffff1673ffffffffffffffffffffffffffffffffffffffff16815260200190815260200160002060009054906101000a900460ff1615611324576040517f08c379a000000000000000000000000000000000000000000000000000000000815260040161131b9061264e565b60405180910390fd5b6001600660008373ffffffffffffffffffffffffffffffffffffffff1673ffffffffffffffffffffffffffffffffffffffff16815260200190815260200160002060006101000a81548160ff0219169083151502179055506005819080600181540180825580915050600190039060005260206000200160009091909190916101000a81548173ffffffffffffffffffffffffffffffffffffffff021916908373ffffffffffffffffffffffffffffffffffffffff1602179055507fb251eb052afc73ffd02ffe85ad79990a8b3fed60d76dbc2fa2fdd7123dffd9148160405161140e91906117e8565b60405180910390a150565b61142161149f565b600073ffffffffffffffffffffffffffffffffffffffff168173ffffffffffffffffffffffffffffffffffffffff16036114935760006040517f1e4fbdf700000000000000000000000000000000000000000000000000000000815260040161148a91906117e8565b60405180910390fd5b61149c81611575565b50565b6114a7611639565b73ffffffffffffffffffffffffffffffffffffffff166114c5610d7f565b73ffffffffffffffffffffffffffffffffffffffff1614611524576114e8611639565b6040517f118cdaa700000000000000000000000000000000000000000000000000000000815260040161151b91906117e8565b60405180910390fd5b565b600260015403611562576040517f3ee5aeb500000000000000000000000000000000000000000000000000000000815260040160405180910390fd5b6002600181905550565b60018081905550565b60008060009054906101000a900473ffffffffffffffffffffffffffffffffffffffff169050816000806101000a81548173ffffffffffffffffffffffffffffffffffffffff021916908373ffffffffffffffffffffffffffffffffffffffff1602179055508173ffffffffffffffffffffffffffffffffffffffff168173ffffffffffffffffffffffffffffffffffffffff167f8be0079c531659141344cd1fd0a4f28419497f9722a3daafe3b4186f6b6457e060405160405180910390a35050565b600033905090565b600080fd5b600080fd5b600073ffffffffffffffffffffffffffffffffffffffff82169050919050565b60006116768261164b565b9050919050565b6116868161166b565b811461169157600080fd5b50565b6000813590506116a38161167d565b92915050565b6000602082840312156116bf576116be611641565b5b60006116cd84828501611694565b91505092915050565b6000819050919050565b6116e9816116d6565b81146116f457600080fd5b50565b600081359050611706816116e0565b92915050565b60006020828403121561172257611721611641565b5b6000611730848285016116f7565b91505092915050565b611742816116d6565b82525050565b600060208201905061175d6000830184611739565b92915050565b6000806040838503121561177a57611779611641565b5b6000611788858286016116f7565b925050602061179985828601611694565b9150509250929050565b60008115159050919050565b6117b8816117a3565b82525050565b60006020820190506117d360008301846117af565b92915050565b6117e28161166b565b82525050565b60006020820190506117fd60008301846117d9565b92915050565b600080fd5b600080fd5b600080fd5b60008083601f84011261182857611827611803565b5b8235905067ffffffffffffffff81111561184557611844611808565b5b6020830191508360018202830111156118615761186061180d565b5b9250929050565b60008060008060006080868803121561188457611883611641565b5b600061189288828901611694565b95505060206118a3888289016116f7565b945050604086013567ffffffffffffffff8111156118c4576118c3611646565b5b6118d088828901611812565b935093505060606118e3888289016116f7565b9150509295509295909350565b600081519050919050565b600082825260208201905092915050565b60005b8381101561192a57808201518184015260208101905061190f565b60008484015250505050565b6000601f19601f8301169050919050565b6000611952826118f0565b61195c81856118fb565b935061196c81856020860161190c565b61197581611936565b840191505092915050565b600060e082019050611995600083018a6117d9565b6119a26020830189611739565b81810360408301526119b48188611947565b90506119c36060830187611739565b6119d06080830186611739565b6119dd60a0830185611739565b6119ea60c08301846117af565b98975050505050505050565b6119ff816117a3565b8114611a0a57600080fd5b50565b600081359050611a1c816119f6565b92915050565b60008060408385031215611a3957611a38611641565b5b6000611a47858286016116f7565b9250506020611a5885828601611a0d565b9150509250929050565b7f506173206d656d62726500000000000000000000000000000000000000000000600082015250565b6000611a98600a836118fb565b9150611aa382611a62565b602082019050919050565b60006020820190508181036000830152611ac781611a8b565b9050919050565b7f4e487b7100000000000000000000000000000000000000000000000000000000600052603260045260246000fd5b7f4e487b7100000000000000000000000000000000000000000000000000000000600052601160045260246000fd5b6000611b37826116d6565b9150611b42836116d6565b9250828203905081811115611b5a57611b59611afd565b5b92915050565b7f4e487b7100000000000000000000000000000000000000000000000000000000600052603160045260246000fd5b7f50726f706f736974696f6e20696e6578697374616e7465000000000000000000600082015250565b6000611bc56017836118fb565b9150611bd082611b8f565b602082019050919050565b60006020820190508181036000830152611bf481611bb8565b9050919050565b7f566f746520656e636f726520656e20636f757273000000000000000000000000600082015250565b6000611c316014836118fb565b9150611c3c82611bfb565b602082019050919050565b60006020820190508181036000830152611c6081611c24565b9050919050565b7f44656a6120657865637574656500000000000000000000000000000000000000600082015250565b6000611c9d600d836118fb565b9150611ca882611c67565b602082019050919050565b60006020820190508181036000830152611ccc81611c90565b9050919050565b7f51756f72756d206e6f6e2061747465696e740000000000000000000000000000600082015250565b6000611d096012836118fb565b9150611d1482611cd3565b602082019050919050565b60006020820190508181036000830152611d3881611cfc565b9050919050565b7f4d616a6f72697465206e6f6e2061747465696e74650000000000000000000000600082015250565b6000611d756015836118fb565b9150611d8082611d3f565b602082019050919050565b60006020820190508181036000830152611da481611d68565b9050919050565b7f536f6c646520696e737566666973616e74000000000000000000000000000000600082015250565b6000611de16011836118fb565b9150611dec82611dab565b602082019050919050565b60006020820190508181036000830152611e1081611dd4565b9050919050565b600081905092915050565b50565b6000611e32600083611e17565b9150611e3d82611e22565b600082019050919050565b6000611e5382611e25565b9150819050919050565b7f5472616e7366657274206563686f756500000000000000000000000000000000600082015250565b6000611e936010836118fb565b9150611e9e82611e5d565b602082019050919050565b60006020820190508181036000830152611ec281611e86565b9050919050565b6000606082019050611ede6000830186611739565b611eeb60208301856117d9565b611ef86040830184611739565b949350505050565b7f5365756c20756e206d656d627265000000000000000000000000000000000000600082015250565b6000611f36600e836118fb565b9150611f4182611f00565b602082019050919050565b60006020820190508181036000830152611f6581611f29565b9050919050565b7f44657374696e61746169726520696e76616c6964650000000000000000000000600082015250565b6000611fa26015836118fb565b9150611fad82611f6c565b602082019050919050565b60006020820190508181036000830152611fd181611f95565b9050919050565b7f4d6f6e74616e7420696e76616c69646500000000000000000000000000000000600082015250565b600061200e6010836118fb565b915061201982611fd8565b602082019050919050565b6000602082019050818103600083015261203d81612001565b9050919050565b600061204f826116d6565b91507fffffffffffffffffffffffffffffffffffffffffffffffffffffffffffffffff820361208157612080611afd565b5b600182019050919050565b600082905092915050565b7f4e487b7100000000000000000000000000000000000000000000000000000000600052604160045260246000fd5b7f4e487b7100000000000000000000000000000000000000000000000000000000600052602260045260246000fd5b6000600282049050600182168061210d57607f821691505b6020821081036121205761211f6120c6565b5b50919050565b60008190508160005260206000209050919050565b60006020601f8301049050919050565b600082821b905092915050565b6000600883026121887fffffffffffffffffffffffffffffffffffffffffffffffffffffffffffffffff8261214b565b612192868361214b565b95508019841693508086168417925050509392505050565b6000819050919050565b60006121cf6121ca6121c5846116d6565b6121aa565b6116d6565b9050919050565b6000819050919050565b6121e9836121b4565b6121fd6121f5826121d6565b848454612158565b825550505050565b600090565b612212612205565b61221d8184846121e0565b505050565b5b818110156122415761223660008261220a565b600181019050612223565b5050565b601f8211156122865761225781612126565b6122608461213b565b8101602085101561226f578190505b61228361227b8561213b565b830182612222565b50505b505050565b600082821c905092915050565b60006122a96000198460080261228b565b1980831691505092915050565b60006122c28383612298565b9150826002028217905092915050565b6122dc838361208c565b67ffffffffffffffff8111156122f5576122f4612097565b5b6122ff82546120f5565b61230a828285612245565b6000601f8311600181146123395760008415612327578287013590505b61233185826122b6565b865550612399565b601f19841661234786612126565b60005b8281101561236f5784890135825560018201915060208501945060208101905061234a565b8683101561238c5784890135612388601f891682612298565b8355505b6001600288020188555050505b50505050505050565b60006123ad826116d6565b91506123b8836116d6565b92508282019050808211156123d0576123cf611afd565b5b92915050565b60006080820190506123eb6000830187611739565b6123f860208301866117d9565b6124056040830185611739565b6124126060830184611739565b95945050505050565b7f51756f72756d20696e76616c6964650000000000000000000000000000000000600082015250565b6000612451600f836118fb565b915061245c8261241b565b602082019050919050565b6000602082019050818103600083015261248081612444565b9050919050565b7f566f7465207465726d696e650000000000000000000000000000000000000000600082015250565b60006124bd600c836118fb565b91506124c882612487565b602082019050919050565b600060208201905081810360008301526124ec816124b0565b9050919050565b7f44656a6120766f74650000000000000000000000000000000000000000000000600082015250565b60006125296009836118fb565b9150612534826124f3565b602082019050919050565b600060208201905081810360008301526125588161251c565b9050919050565b60006060820190506125746000830186611739565b61258160208301856117d9565b61258e60408301846117af565b949350505050565b7f4164726573736520696e76616c69646500000000000000000000000000000000600082015250565b60006125cc6010836118fb565b91506125d782612596565b602082019050919050565b600060208201905081810360008301526125fb816125bf565b9050919050565b7f44656a61206d656d627265000000000000000000000000000000000000000000600082015250565b6000612638600b836118fb565b915061264382612602565b602082019050919050565b600060208201905081810360008301526126678161262b565b905091905056fea26469706673582212200afe09697d7d330cd60bc9585637233add1db43196ae5ebdbeaff0c4069b754864736f6c634300081c0033",
  "linkReferences": {},
  "deployedLinkReferences": {}
}